{
  "_format": "hh-sol-artifact-1",
  "contractName": "CrossChainHashedEscrow",
  "sourceName": "Contracts/CrossChainHashedEscrow.sol",
  "abi": [
    {
      "inputs": [],
      "stateMutability": "nonpayable",
      "type": "constructor"
    },
    {
      "inputs": [],
      "name": "ECDSAInvalidSignature",
      "type": "error"
    },
    {
      "inputs": [
        {
          "internalType": "uint256",
          "name": "length",
          "type": "uint256"
        }
      ],
      "name": "ECDSAInvalidSignatureLength",
      "type": "error"
    },
    {
      "inputs": [
        {
          "internalType": "bytes32",
          "name": "s",
          "type": "bytes32"
        }
      ],
      "name": "ECDSAInvalidSignatureS",
      "type": "error"
    },
    {
      "inputs": [],
      "name": "InvalidShortString",
      "type": "error"
    },
    {
      "inputs": [
        {
          "internalType": "string",
          "name": "str",
          "type": "string"
        }
      ],
      "name": "StringTooLong",
      "type": "error"
    },
    {
      "anonymous": false,
      "inputs": [
        {
          "indexed": true,
          "internalType": "bytes32",
          "name": "swapId",
          "type": "bytes32"
        },
        {
          "indexed": false,
          "internalType": "bytes32",
          "name": "secret",
          "type": "bytes32"
        }
      ],
      "name": "Claimed",
      "type": "event"
    },
    {
      "anonymous": false,
      "inputs": [],
      "name": "EIP712DomainChanged",
      "type": "event"
    },
    {
      "anonymous": false,
      "inputs": [
        {
          "indexed": true,
          "internalType": "bytes32",
          "name": "swapId",
          "type": "bytes32"
        },
        {
          "indexed": true,
          "internalType": "address",
          "name": "initiator",
          "type": "address"
        },
        {
          "indexed": true,
          "internalType": "address",
          "name": "recipient",
          "type": "address"
        },
        {
          "indexed": false,
          "internalType": "address",
          "name": "token",
          "type": "address"
        },
        {
          "indexed": false,
          "internalType": "uint256",
          "name": "amount",
          "type": "uint256"
        }
      ],
      "name": "Locked",
      "type": "event"
    },
    {
      "anonymous": false,
      "inputs": [
        {
          "indexed": true,
          "internalType": "bytes32",
          "name": "swapId",
          "type": "bytes32"
        }
      ],
      "name": "Refunded",
      "type": "event"
    },
    {
      "inputs": [
        {
          "internalType": "bytes32",
          "name": "swapId",
          "type": "bytes32"
        },
        {
          "internalType": "bytes32",
          "name": "secret",
          "type": "bytes32"
        }
      ],
      "name": "claim",
      "outputs": [],
      "stateMutability": "nonpayable",
      "type": "function"
    },
    {
      "inputs": [],
      "name": "eip712Domain",
      "outputs": [
        {
          "internalType": "bytes1",
          "name": "fields",
          "type": "bytes1"
        },
        {
          "internalType": "string",
          "name": "name",
          "type": "string"
        },
        {
          "internalType": "string",
          "name": "version",
          "type": "string"
        },
        {
          "internalType": "uint256",
          "name": "chainId",
          "type": "uint256"
        },
        {
          "internalType": "address",
          "name": "verifyingContract",
          "type": "address"
        },
        {
          "internalType": "bytes32",
          "name": "salt",
          "type": "bytes32"
        },
        {
          "internalType": "uint256[]",
          "name": "extensions",
          "type": "uint256[]"
        }
      ],
      "stateMutability": "view",
      "type": "function"
    },
    {
      "inputs": [
        {
          "components": [
            {
              "internalType": "address",
              "name": "initiator",
              "type": "address"
            },
            {
              "internalType": "address",
              "name": "recipient",
              "type": "address"
            },
            {
              "internalType": "address",
              "name": "token",
              "type": "address"
            },
            {
              "internalType": "uint256",
              "name": "amount",
              "type": "uint256"
            },
            {
              "internalType": "bytes32",
              "name": "hashedSecret",
              "type": "bytes32"
            },
            {
              "internalType": "uint256",
              "name": "timelock",
              "type": "uint256"
            }
          ],
          "internalType": "struct CrossChainHashedEscrow.SwapData",
          "name": "swap",
          "type": "tuple"
        },
        {
          "internalType": "bytes",
          "name": "signature",
          "type": "bytes"
        }
      ],
      "name": "lock",
      "outputs": [],
      "stateMutability": "nonpayable",
      "type": "function"
    },
    {
      "inputs": [
        {
          "internalType": "bytes32",
          "name": "swapId",
          "type": "bytes32"
        }
      ],
      "name": "refund",
      "outputs": [],
      "stateMutability": "nonpayable",
      "type": "function"
    },
    {
      "inputs": [
        {
          "internalType": "bytes32",
          "name": "",
          "type": "bytes32"
        }
      ],
      "name": "swaps",
      "outputs": [
        {
          "internalType": "address",
          "name": "initiator",
          "type": "address"
        },
        {
          "internalType": "address",
          "name": "recipient",
          "type": "address"
        },
        {
          "internalType": "address",
          "name": "token",
          "type": "address"
        },
        {
          "internalType": "uint256",
          "name": "amount",
          "type": "uint256"
        },
        {
          "internalType": "bytes32",
          "name": "hashedSecret",
          "type": "bytes32"
        },
        {
          "internalType": "uint256",
          "name": "timelock",
          "type": "uint256"
        },
        {
          "internalType": "enum CrossChainHashedEscrow.HtlcStatus",
          "name": "status",
          "type": "uint8"
        }
      ],
      "stateMutability": "view",
      "type": "function"
    }
  ],
  "bytecode": "0x6101606040523480156200001257600080fd5b506040518060400160405280601681526020017f43726f7373436861696e486173686564457363726f77000000000000000000008152506040518060400160405280600181526020017f3100000000000000000000000000000000000000000000000000000000000000815250620000956000836200013560201b90919060201c565b6101208181525050620000b36001826200013560201b90919060201c565b6101408181525050818051906020012060e08181525050808051906020012061010081815250504660a08181525050620000f26200018d60201b60201c565b608081815250503073ffffffffffffffffffffffffffffffffffffffff1660c08173ffffffffffffffffffffffffffffffffffffffff16815250505050620007e5565b60006020835110156200015b576200015383620001ea60201b60201c565b905062000187565b826200016d836200025760201b60201c565b60000190816200017e9190620004db565b5060ff60001b90505b92915050565b60007f8b73c3c69bb8fe3d512ecc4cf759cc79239f7b179b0ffacaa9a75d522b39400f60e051610100514630604051602001620001cf95949392919062000633565b60405160208183030381529060405280519060200120905090565b600080829050601f815111156200023a57826040517f305a27a90000000000000000000000000000000000000000000000000000000081526004016200023191906200071f565b60405180910390fd5b805181620002489062000775565b60001c1760001b915050919050565b6000819050919050565b600081519050919050565b7f4e487b7100000000000000000000000000000000000000000000000000000000600052604160045260246000fd5b7f4e487b7100000000000000000000000000000000000000000000000000000000600052602260045260246000fd5b60006002820490506001821680620002e357607f821691505b602082108103620002f957620002f86200029b565b5b50919050565b60008190508160005260206000209050919050565b60006020601f8301049050919050565b600082821b905092915050565b600060088302620003637fffffffffffffffffffffffffffffffffffffffffffffffffffffffffffffffff8262000324565b6200036f868362000324565b95508019841693508086168417925050509392505050565b6000819050919050565b6000819050919050565b6000620003bc620003b6620003b08462000387565b62000391565b62000387565b9050919050565b6000819050919050565b620003d8836200039b565b620003f0620003e782620003c3565b84845462000331565b825550505050565b600090565b62000407620003f8565b62000414818484620003cd565b505050565b5b818110156200043c5762000430600082620003fd565b6001810190506200041a565b5050565b601f8211156200048b576200045581620002ff565b620004608462000314565b8101602085101562000470578190505b620004886200047f8562000314565b83018262000419565b50505b505050565b600082821c905092915050565b6000620004b06000198460080262000490565b1980831691505092915050565b6000620004cb83836200049d565b9150826002028217905092915050565b620004e68262000261565b67ffffffffffffffff8111156200050257620005016200026c565b5b6200050e8254620002ca565b6200051b82828562000440565b600060209050601f8311600181146200055357600084156200053e578287015190505b6200054a8582620004bd565b865550620005ba565b601f1984166200056386620002ff565b60005b828110156200058d5784890151825560018201915060208501945060208101905062000566565b86831015620005ad5784890151620005a9601f8916826200049d565b8355505b6001600288020188555050505b505050505050565b6000819050919050565b620005d781620005c2565b82525050565b620005e88162000387565b82525050565b600073ffffffffffffffffffffffffffffffffffffffff82169050919050565b60006200061b82620005ee565b9050919050565b6200062d816200060e565b82525050565b600060a0820190506200064a6000830188620005cc565b620006596020830187620005cc565b620006686040830186620005cc565b620006776060830185620005dd565b62000686608083018462000622565b9695505050505050565b600082825260208201905092915050565b60005b83811015620006c1578082015181840152602081019050620006a4565b60008484015250505050565b6000601f19601f8301169050919050565b6000620006eb8262000261565b620006f7818562000690565b935062000709818560208601620006a1565b6200071481620006cd565b840191505092915050565b600060208201905081810360008301526200073b8184620006de565b905092915050565b600081519050919050565b6000819050602082019050919050565b60006200076c8251620005c2565b80915050919050565b6000620007828262000743565b826200078e846200074e565b90506200079b816200075e565b92506020821015620007de57620007d97fffffffffffffffffffffffffffffffffffffffffffffffffffffffffffffffff8360200360080262000324565b831692505b5050919050565b60805160a05160c05160e0516101005161012051610140516121b8620008406000396000610e5101526000610e16015260006112eb015260006112ca01526000610f7d01526000610fd301526000610ffc01526121b86000f3fe608060405234801561001057600080fd5b50600436106100565760003560e01c8062c13ee41461005b5780637249fbb61461007757806384b0196e1461009357806384cc9dfb146100b7578063eb84e7f2146100d3575b600080fd5b61007560048036038101906100709190611512565b610109565b005b610091600480360381019061008c91906115a8565b6105d4565b005b61009b610865565b6040516100ae97969594939291906117c7565b60405180910390f35b6100d160048036038101906100cc919061184b565b61090f565b005b6100ed60048036038101906100e891906115a8565b610c5f565b6040516101009796959493929190611902565b60405180910390f35b8260a00135421061014f576040517f08c379a0000000000000000000000000000000000000000000000000000000008152600401610146906119bd565b60405180910390fd5b600061015a84610d0e565b9050600060038111156101705761016f61188b565b5b6002600083815260200190815260200160002060060160009054906101000a900460ff1660038111156101a6576101a561188b565b5b146101e6576040517f08c379a00000000000000000000000000000000000000000000000000000000081526004016101dd90611a29565b60405180910390fd5b60006101f3828585610db4565b90508460000160208101906102089190611a75565b73ffffffffffffffffffffffffffffffffffffffff168173ffffffffffffffffffffffffffffffffffffffff1614610275576040517f08c379a000000000000000000000000000000000000000000000000000000000815260040161026c90611aee565b60405180910390fd5b6040518060e001604052808660000160208101906102939190611a75565b73ffffffffffffffffffffffffffffffffffffffff1681526020018660200160208101906102c19190611a75565b73ffffffffffffffffffffffffffffffffffffffff1681526020018660400160208101906102ef9190611a75565b73ffffffffffffffffffffffffffffffffffffffff1681526020018660600135815260200186608001358152602001620151804261032d9190611b3d565b8152602001600160038111156103465761034561188b565b5b8152506002600084815260200190815260200160002060008201518160000160006101000a81548173ffffffffffffffffffffffffffffffffffffffff021916908373ffffffffffffffffffffffffffffffffffffffff16021790555060208201518160010160006101000a81548173ffffffffffffffffffffffffffffffffffffffff021916908373ffffffffffffffffffffffffffffffffffffffff16021790555060408201518160020160006101000a81548173ffffffffffffffffffffffffffffffffffffffff021916908373ffffffffffffffffffffffffffffffffffffffff160217905550606082015181600301556080820151816004015560a0820151816005015560c08201518160060160006101000a81548160ff0219169083600381111561047a5761047961188b565b5b02179055509050508460400160208101906104959190611a75565b73ffffffffffffffffffffffffffffffffffffffff166323b872dd8660000160208101906104c39190611a75565b3088606001356040518463ffffffff1660e01b81526004016104e793929190611b71565b6020604051808303816000875af1158015610506573d6000803e3d6000fd5b505050506040513d601f19601f8201168201806040525081019061052a9190611be0565b5084602001602081019061053e9190611a75565b73ffffffffffffffffffffffffffffffffffffffff168560000160208101906105679190611a75565b73ffffffffffffffffffffffffffffffffffffffff16837fb623dc31c73e96a10aed23d304425428f5ff667841a19d1ffc324eaed0afc5408860400160208101906105b29190611a75565b89606001356040516105c5929190611c0d565b60405180910390a45050505050565b6000600260008381526020019081526020016000209050600160038111156105ff576105fe61188b565b5b8160060160009054906101000a900460ff1660038111156106235761062261188b565b5b14610663576040517f08c379a000000000000000000000000000000000000000000000000000000000815260040161065a90611c82565b60405180910390fd5b3373ffffffffffffffffffffffffffffffffffffffff168160000160009054906101000a900473ffffffffffffffffffffffffffffffffffffffff1673ffffffffffffffffffffffffffffffffffffffff16146106f5576040517f08c379a00000000000000000000000000000000000000000000000000000000081526004016106ec90611cee565b60405180910390fd5b806005015442101561073c576040517f08c379a000000000000000000000000000000000000000000000000000000000815260040161073390611d5a565b60405180910390fd5b60038160060160006101000a81548160ff021916908360038111156107645761076361188b565b5b02179055508060020160009054906101000a900473ffffffffffffffffffffffffffffffffffffffff1673ffffffffffffffffffffffffffffffffffffffff1663a9059cbb8260000160009054906101000a900473ffffffffffffffffffffffffffffffffffffffff1683600301546040518363ffffffff1660e01b81526004016107f0929190611c0d565b6020604051808303816000875af115801561080f573d6000803e3d6000fd5b505050506040513d601f19601f820116820180604052508101906108339190611be0565b50817ffe509803c09416b28ff3d8f690c8b0c61462a892c46d5430c8fb20abe472daf060405160405180910390a25050565b600060608060008060006060610879610e0d565b610881610e48565b46306000801b600067ffffffffffffffff8111156108a2576108a1611d7a565b5b6040519080825280602002602001820160405280156108d05781602001602082028036833780820191505090505b507f0f00000000000000000000000000000000000000000000000000000000000000959493929190965096509650965096509650965090919293949596565b60006002600084815260200190815260200160002090506001600381111561093a5761093961188b565b5b8160060160009054906101000a900460ff16600381111561095e5761095d61188b565b5b1461099e576040517f08c379a000000000000000000000000000000000000000000000000000000000815260040161099590611c82565b60405180910390fd5b3373ffffffffffffffffffffffffffffffffffffffff168160010160009054906101000a900473ffffffffffffffffffffffffffffffffffffffff1673ffffffffffffffffffffffffffffffffffffffff1614610a30576040517f08c379a0000000000000000000000000000000000000000000000000000000008152600401610a2790611df5565b60405180910390fd5b600282604051602001610a439190611e36565b604051602081830303815290604052604051610a5f9190611e98565b602060405180830381855afa158015610a7c573d6000803e3d6000fd5b5050506040513d601f19601f82011682018060405250810190610a9f9190611ec4565b816004015414610ae4576040517f08c379a0000000000000000000000000000000000000000000000000000000008152600401610adb90611f3d565b60405180910390fd5b80600501544210610b2a576040517f08c379a0000000000000000000000000000000000000000000000000000000008152600401610b2190611fa9565b60405180910390fd5b60028160060160006101000a81548160ff02191690836003811115610b5257610b5161188b565b5b02179055508060020160009054906101000a900473ffffffffffffffffffffffffffffffffffffffff1673ffffffffffffffffffffffffffffffffffffffff1663a9059cbb8260010160009054906101000a900473ffffffffffffffffffffffffffffffffffffffff1683600301546040518363ffffffff1660e01b8152600401610bde929190611c0d565b6020604051808303816000875af1158015610bfd573d6000803e3d6000fd5b505050506040513d601f19601f82011682018060405250810190610c219190611be0565b50827f38d6042dbdae8e73a7f6afbabd3fbe0873f9f5ed3cd71294591c3908c2e65fee83604051610c529190611fc9565b60405180910390a2505050565b60026020528060005260406000206000915090508060000160009054906101000a900473ffffffffffffffffffffffffffffffffffffffff16908060010160009054906101000a900473ffffffffffffffffffffffffffffffffffffffff16908060020160009054906101000a900473ffffffffffffffffffffffffffffffffffffffff16908060030154908060040154908060050154908060060160009054906101000a900460ff16905087565b6000610dad7ff8329eef6d01cbd99badedda028eb20c3bbf4e5bdc0001ba720eb4700a10fd44836000016020810190610d479190611a75565b846020016020810190610d5a9190611a75565b856040016020810190610d6d9190611a75565b866060013587608001358860a00135604051602001610d929796959493929190611fe4565b60405160208183030381529060405280519060200120610e83565b9050919050565b6000610e048484848080601f016020809104026020016040519081016040528093929190818152602001838380828437600081840152601f19601f82011690508083019250505050505050610e9d565b90509392505050565b6060610e4360007f0000000000000000000000000000000000000000000000000000000000000000610ec990919063ffffffff16565b905090565b6060610e7e60017f0000000000000000000000000000000000000000000000000000000000000000610ec990919063ffffffff16565b905090565b6000610e96610e90610f79565b83611030565b9050919050565b600080600080610ead8686611071565b925092509250610ebd82826110cd565b82935050505092915050565b606060ff60001b8314610ee657610edf83611231565b9050610f73565b818054610ef290612082565b80601f0160208091040260200160405190810160405280929190818152602001828054610f1e90612082565b8015610f6b5780601f10610f4057610100808354040283529160200191610f6b565b820191906000526020600020905b815481529060010190602001808311610f4e57829003601f168201915b505050505090505b92915050565b60007f000000000000000000000000000000000000000000000000000000000000000073ffffffffffffffffffffffffffffffffffffffff163073ffffffffffffffffffffffffffffffffffffffff16148015610ff557507f000000000000000000000000000000000000000000000000000000000000000046145b15611022577f0000000000000000000000000000000000000000000000000000000000000000905061102d565b61102a6112a5565b90505b90565b60006040517f190100000000000000000000000000000000000000000000000000000000000081528360028201528260228201526042812091505092915050565b600080600060418451036110b65760008060006020870151925060408701519150606087015160001a90506110a88882858561133b565b9550955095505050506110c6565b60006002855160001b9250925092505b9250925092565b600060038111156110e1576110e061188b565b5b8260038111156110f4576110f361188b565b5b031561122d576001600381111561110e5761110d61188b565b5b8260038111156111215761112061188b565b5b03611158576040517ff645eedf00000000000000000000000000000000000000000000000000000000815260040160405180910390fd5b6002600381111561116c5761116b61188b565b5b82600381111561117f5761117e61188b565b5b036111c4578060001c6040517ffce698f70000000000000000000000000000000000000000000000000000000081526004016111bb91906120b3565b60405180910390fd5b6003808111156111d7576111d661188b565b5b8260038111156111ea576111e961188b565b5b0361122c57806040517fd78bce0c0000000000000000000000000000000000000000000000000000000081526004016112239190611fc9565b60405180910390fd5b5b5050565b6060600061123e8361142f565b90506000602067ffffffffffffffff81111561125d5761125c611d7a565b5b6040519080825280601f01601f19166020018201604052801561128f5781602001600182028036833780820191505090505b5090508181528360208201528092505050919050565b60007f8b73c3c69bb8fe3d512ecc4cf759cc79239f7b179b0ffacaa9a75d522b39400f7f00000000000000000000000000000000000000000000000000000000000000007f000000000000000000000000000000000000000000000000000000000000000046306040516020016113209594939291906120ce565b60405160208183030381529060405280519060200120905090565b60008060007f7fffffffffffffffffffffffffffffff5d576e7357a4501ddfe92f46681b20a08460001c111561137b576000600385925092509250611425565b6000600188888888604051600081526020016040526040516113a0949392919061213d565b6020604051602081039080840390855afa1580156113c2573d6000803e3d6000fd5b505050602060405103519050600073ffffffffffffffffffffffffffffffffffffffff168173ffffffffffffffffffffffffffffffffffffffff160361141657600060016000801b93509350935050611425565b8060008060001b935093509350505b9450945094915050565b60008060ff8360001c169050601f811115611476576040517fb3512b0c00000000000000000000000000000000000000000000000000000000815260040160405180910390fd5b80915050919050565b600080fd5b600080fd5b600080fd5b600060c082840312156114a4576114a3611489565b5b81905092915050565b600080fd5b600080fd5b600080fd5b60008083601f8401126114d2576114d16114ad565b5b8235905067ffffffffffffffff8111156114ef576114ee6114b2565b5b60208301915083600182028301111561150b5761150a6114b7565b5b9250929050565b600080600060e0848603121561152b5761152a61147f565b5b60006115398682870161148e565b93505060c084013567ffffffffffffffff81111561155a57611559611484565b5b611566868287016114bc565b92509250509250925092565b6000819050919050565b61158581611572565b811461159057600080fd5b50565b6000813590506115a28161157c565b92915050565b6000602082840312156115be576115bd61147f565b5b60006115cc84828501611593565b91505092915050565b60007fff0000000000000000000000000000000000000000000000000000000000000082169050919050565b61160a816115d5565b82525050565b600081519050919050565b600082825260208201905092915050565b60005b8381101561164a57808201518184015260208101905061162f565b60008484015250505050565b6000601f19601f8301169050919050565b600061167282611610565b61167c818561161b565b935061168c81856020860161162c565b61169581611656565b840191505092915050565b6000819050919050565b6116b3816116a0565b82525050565b600073ffffffffffffffffffffffffffffffffffffffff82169050919050565b60006116e4826116b9565b9050919050565b6116f4816116d9565b82525050565b61170381611572565b82525050565b600081519050919050565b600082825260208201905092915050565b6000819050602082019050919050565b61173e816116a0565b82525050565b60006117508383611735565b60208301905092915050565b6000602082019050919050565b600061177482611709565b61177e8185611714565b935061178983611725565b8060005b838110156117ba5781516117a18882611744565b97506117ac8361175c565b92505060018101905061178d565b5085935050505092915050565b600060e0820190506117dc600083018a611601565b81810360208301526117ee8189611667565b905081810360408301526118028188611667565b905061181160608301876116aa565b61181e60808301866116eb565b61182b60a08301856116fa565b81810360c083015261183d8184611769565b905098975050505050505050565b600080604083850312156118625761186161147f565b5b600061187085828601611593565b925050602061188185828601611593565b9150509250929050565b7f4e487b7100000000000000000000000000000000000000000000000000000000600052602160045260246000fd5b600481106118cb576118ca61188b565b5b50565b60008190506118dc826118ba565b919050565b60006118ec826118ce565b9050919050565b6118fc816118e1565b82525050565b600060e082019050611917600083018a6116eb565b61192460208301896116eb565b61193160408301886116eb565b61193e60608301876116aa565b61194b60808301866116fa565b61195860a08301856116aa565b61196560c08301846118f3565b98975050505050505050565b7f53776170206c6f636b20646561646c696e652065787069726564000000000000600082015250565b60006119a7601a8361161b565b91506119b282611971565b602082019050919050565b600060208201905081810360008301526119d68161199a565b9050919050565b7f5377617020616c726561647920696e6974696174656400000000000000000000600082015250565b6000611a1360168361161b565b9150611a1e826119dd565b602082019050919050565b60006020820190508181036000830152611a4281611a06565b9050919050565b611a52816116d9565b8114611a5d57600080fd5b50565b600081359050611a6f81611a49565b92915050565b600060208284031215611a8b57611a8a61147f565b5b6000611a9984828501611a60565b91505092915050565b7f496e76616c6964207369676e61747572652066726f6d206d616b657200000000600082015250565b6000611ad8601c8361161b565b9150611ae382611aa2565b602082019050919050565b60006020820190508181036000830152611b0781611acb565b9050919050565b7f4e487b7100000000000000000000000000000000000000000000000000000000600052601160045260246000fd5b6000611b48826116a0565b9150611b53836116a0565b9250828201905080821115611b6b57611b6a611b0e565b5b92915050565b6000606082019050611b8660008301866116eb565b611b9360208301856116eb565b611ba060408301846116aa565b949350505050565b60008115159050919050565b611bbd81611ba8565b8114611bc857600080fd5b50565b600081519050611bda81611bb4565b92915050565b600060208284031215611bf657611bf561147f565b5b6000611c0484828501611bcb565b91505092915050565b6000604082019050611c2260008301856116eb565b611c2f60208301846116aa565b9392505050565b7f53776170206e6f7420696e206c6f636b65642073746174650000000000000000600082015250565b6000611c6c60188361161b565b9150611c7782611c36565b602082019050919050565b60006020820190508181036000830152611c9b81611c5f565b9050919050565b7f4f6e6c7920696e69746961746f722063616e20726566756e6400000000000000600082015250565b6000611cd860198361161b565b9150611ce382611ca2565b602082019050919050565b60006020820190508181036000830152611d0781611ccb565b9050919050565b7f54696d656c6f636b206e6f742079657420657870697265640000000000000000600082015250565b6000611d4460188361161b565b9150611d4f82611d0e565b602082019050919050565b60006020820190508181036000830152611d7381611d37565b9050919050565b7f4e487b7100000000000000000000000000000000000000000000000000000000600052604160045260246000fd5b7f4f6e6c7920726563697069656e742063616e20636c61696d0000000000000000600082015250565b6000611ddf60188361161b565b9150611dea82611da9565b602082019050919050565b60006020820190508181036000830152611e0e81611dd2565b9050919050565b6000819050919050565b611e30611e2b82611572565b611e15565b82525050565b6000611e428284611e1f565b60208201915081905092915050565b600081519050919050565b600081905092915050565b6000611e7282611e51565b611e7c8185611e5c565b9350611e8c81856020860161162c565b80840191505092915050565b6000611ea48284611e67565b915081905092915050565b600081519050611ebe8161157c565b92915050565b600060208284031215611eda57611ed961147f565b5b6000611ee884828501611eaf565b91505092915050565b7f496e76616c696420736563726574000000000000000000000000000000000000600082015250565b6000611f27600e8361161b565b9150611f3282611ef1565b602082019050919050565b60006020820190508181036000830152611f5681611f1a565b9050919050565b7f54696d656c6f636b206578706972656400000000000000000000000000000000600082015250565b6000611f9360108361161b565b9150611f9e82611f5d565b602082019050919050565b60006020820190508181036000830152611fc281611f86565b9050919050565b6000602082019050611fde60008301846116fa565b92915050565b600060e082019050611ff9600083018a6116fa565b61200660208301896116eb565b61201360408301886116eb565b61202060608301876116eb565b61202d60808301866116aa565b61203a60a08301856116fa565b61204760c08301846116aa565b98975050505050505050565b7f4e487b7100000000000000000000000000000000000000000000000000000000600052602260045260246000fd5b6000600282049050600182168061209a57607f821691505b6020821081036120ad576120ac612053565b5b50919050565b60006020820190506120c860008301846116aa565b92915050565b600060a0820190506120e360008301886116fa565b6120f060208301876116fa565b6120fd60408301866116fa565b61210a60608301856116aa565b61211760808301846116eb565b9695505050505050565b600060ff82169050919050565b61213781612121565b82525050565b600060808201905061215260008301876116fa565b61215f602083018661212e565b61216c60408301856116fa565b61217960608301846116fa565b9594505050505056fea2646970667358221220c6cb16a79fe6b2e8440bb6716b547a26b2bc68a015d94218db7d21a2b0cd8eb764736f6c63430008180033",
  "linkReferences": {},
  "deployedLinkReferences": {}
}