{
  "_format": "hh-sol-artifact-1",
  "contractName": "EscrowWithSignature",
  "sourceName": "Contracts/EscrowWithSignature.sol",
  "abi": [
    {
      "inputs": [],
      "stateMutability": "nonpayable",
      "type": "constructor"
    },
    {
      "inputs": [],
      "name": "ECDSAInvalidSignature",
      "type": "error"
    },
    {
      "inputs": [
        {
          "internalType": "uint256",
          "name": "length",
          "type": "uint256"
        }
      ],
      "name": "ECDSAInvalidSignatureLength",
      "type": "error"
    },
    {
      "inputs": [
        {
          "internalType": "bytes32",
          "name": "s",
          "type": "bytes32"
        }
      ],
      "name": "ECDSAInvalidSignatureS",
      "type": "error"
    },
    {
      "inputs": [],
      "name": "InvalidShortString",
      "type": "error"
    },
    {
      "inputs": [
        {
          "internalType": "string",
          "name": "str",
          "type": "string"
        }
      ],
      "name": "StringTooLong",
      "type": "error"
    },
    {
      "anonymous": false,
      "inputs": [],
      "name": "EIP712DomainChanged",
      "type": "event"
    },
    {
      "anonymous": false,
      "inputs": [
        {
          "indexed": true,
          "internalType": "bytes32",
          "name": "swapId",
          "type": "bytes32"
        },
        {
          "indexed": true,
          "internalType": "address",
          "name": "initiator",
          "type": "address"
        },
        {
          "indexed": true,
          "internalType": "address",
          "name": "recipient",
          "type": "address"
        },
        {
          "indexed": false,
          "internalType": "address",
          "name": "token",
          "type": "address"
        },
        {
          "indexed": false,
          "internalType": "uint256",
          "name": "amount",
          "type": "uint256"
        }
      ],
      "name": "SwapExecuted",
      "type": "event"
    },
    {
      "inputs": [],
      "name": "eip712Domain",
      "outputs": [
        {
          "internalType": "bytes1",
          "name": "fields",
          "type": "bytes1"
        },
        {
          "internalType": "string",
          "name": "name",
          "type": "string"
        },
        {
          "internalType": "string",
          "name": "version",
          "type": "string"
        },
        {
          "internalType": "uint256",
          "name": "chainId",
          "type": "uint256"
        },
        {
          "internalType": "address",
          "name": "verifyingContract",
          "type": "address"
        },
        {
          "internalType": "bytes32",
          "name": "salt",
          "type": "bytes32"
        },
        {
          "internalType": "uint256[]",
          "name": "extensions",
          "type": "uint256[]"
        }
      ],
      "stateMutability": "view",
      "type": "function"
    },
    {
      "inputs": [
        {
          "components": [
            {
              "internalType": "address",
              "name": "initiator",
              "type": "address"
            },
            {
              "internalType": "address",
              "name": "recipient",
              "type": "address"
            },
            {
              "internalType": "address",
              "name": "token",
              "type": "address"
            },
            {
              "internalType": "uint256",
              "name": "amount",
              "type": "uint256"
            },
            {
              "internalType": "uint256",
              "name": "timelock",
              "type": "uint256"
            }
          ],
          "internalType": "struct EscrowWithSignature.Swap",
          "name": "swap",
          "type": "tuple"
        },
        {
          "internalType": "bytes",
          "name": "signature",
          "type": "bytes"
        }
      ],
      "name": "execute",
      "outputs": [],
      "stateMutability": "nonpayable",
      "type": "function"
    },
    {
      "inputs": [
        {
          "internalType": "bytes32",
          "name": "",
          "type": "bytes32"
        }
      ],
      "name": "executedSwaps",
      "outputs": [
        {
          "internalType": "bool",
          "name": "",
          "type": "bool"
        }
      ],
      "stateMutability": "view",
      "type": "function"
    }
  ],
  "bytecode": "0x6101606040523480156200001257600080fd5b506040518060400160405280600681526020017f457363726f7700000000000000000000000000000000000000000000000000008152506040518060400160405280600181526020017f3100000000000000000000000000000000000000000000000000000000000000815250620000956000836200013560201b90919060201c565b6101208181525050620000b36001826200013560201b90919060201c565b6101408181525050818051906020012060e08181525050808051906020012061010081815250504660a08181525050620000f26200018d60201b60201c565b608081815250503073ffffffffffffffffffffffffffffffffffffffff1660c08173ffffffffffffffffffffffffffffffffffffffff16815250505050620007e5565b60006020835110156200015b576200015383620001ea60201b60201c565b905062000187565b826200016d836200025760201b60201c565b60000190816200017e9190620004db565b5060ff60001b90505b92915050565b60007f8b73c3c69bb8fe3d512ecc4cf759cc79239f7b179b0ffacaa9a75d522b39400f60e051610100514630604051602001620001cf95949392919062000633565b60405160208183030381529060405280519060200120905090565b600080829050601f815111156200023a57826040517f305a27a90000000000000000000000000000000000000000000000000000000081526004016200023191906200071f565b60405180910390fd5b805181620002489062000775565b60001c1760001b915050919050565b6000819050919050565b600081519050919050565b7f4e487b7100000000000000000000000000000000000000000000000000000000600052604160045260246000fd5b7f4e487b7100000000000000000000000000000000000000000000000000000000600052602260045260246000fd5b60006002820490506001821680620002e357607f821691505b602082108103620002f957620002f86200029b565b5b50919050565b60008190508160005260206000209050919050565b60006020601f8301049050919050565b600082821b905092915050565b600060088302620003637fffffffffffffffffffffffffffffffffffffffffffffffffffffffffffffffff8262000324565b6200036f868362000324565b95508019841693508086168417925050509392505050565b6000819050919050565b6000819050919050565b6000620003bc620003b6620003b08462000387565b62000391565b62000387565b9050919050565b6000819050919050565b620003d8836200039b565b620003f0620003e782620003c3565b84845462000331565b825550505050565b600090565b62000407620003f8565b62000414818484620003cd565b505050565b5b818110156200043c5762000430600082620003fd565b6001810190506200041a565b5050565b601f8211156200048b576200045581620002ff565b620004608462000314565b8101602085101562000470578190505b620004886200047f8562000314565b83018262000419565b50505b505050565b600082821c905092915050565b6000620004b06000198460080262000490565b1980831691505092915050565b6000620004cb83836200049d565b9150826002028217905092915050565b620004e68262000261565b67ffffffffffffffff8111156200050257620005016200026c565b5b6200050e8254620002ca565b6200051b82828562000440565b600060209050601f8311600181146200055357600084156200053e578287015190505b6200054a8582620004bd565b865550620005ba565b601f1984166200056386620002ff565b60005b828110156200058d5784890151825560018201915060208501945060208101905062000566565b86831015620005ad5784890151620005a9601f8916826200049d565b8355505b6001600288020188555050505b505050505050565b6000819050919050565b620005d781620005c2565b82525050565b620005e88162000387565b82525050565b600073ffffffffffffffffffffffffffffffffffffffff82169050919050565b60006200061b82620005ee565b9050919050565b6200062d816200060e565b82525050565b600060a0820190506200064a6000830188620005cc565b620006596020830187620005cc565b620006686040830186620005cc565b620006776060830185620005dd565b62000686608083018462000622565b9695505050505050565b600082825260208201905092915050565b60005b83811015620006c1578082015181840152602081019050620006a4565b60008484015250505050565b6000601f19601f8301169050919050565b6000620006eb8262000261565b620006f7818562000690565b935062000709818560208601620006a1565b6200071481620006cd565b840191505092915050565b600060208201905081810360008301526200073b8184620006de565b905092915050565b600081519050919050565b6000819050602082019050919050565b60006200076c8251620005c2565b80915050919050565b6000620007828262000743565b826200078e846200074e565b90506200079b816200075e565b92506020821015620007de57620007d97fffffffffffffffffffffffffffffffffffffffffffffffffffffffffffffffff8360200360080262000324565b831692505b5050919050565b60805160a05160c05160e05161010051610120516101405161150862000840600039600061061d015260006105e2015260006109fd015260006109dc01526000610653015260006106a9015260006106d201526115086000f3fe608060405234801561001057600080fd5b50600436106100415760003560e01c8063280b9bf7146100465780633c4ac06e1461007657806384b0196e14610092575b600080fd5b610060600480360381019061005b9190610c45565b6100b6565b60405161006d9190610c8d565b60405180910390f35b610090600480360381019061008b9190610d31565b6100d6565b005b61009a6104e9565b6040516100ad9796959493929190610f83565b60405180910390f35b60026020528060005260406000206000915054906101000a900460ff1681565b8260800135421061011c576040517f08c379a000000000000000000000000000000000000000000000000000000000815260040161011390611053565b60405180910390fd5b60006101b57ffbdfad31f6b893f958fb40e052e205f92de344cf9e7bd3d4d5a031e6b00c053d856000016020810190610155919061109f565b866020016020810190610168919061109f565b87604001602081019061017b919061109f565b8860600135896080013560405160200161019a969594939291906110cc565b60405160208183030381529060405280519060200120610593565b90506002600082815260200190815260200160002060009054906101000a900460ff1615610218576040517f08c379a000000000000000000000000000000000000000000000000000000000815260040161020f90611179565b60405180910390fd5b60006102688285858080601f016020809104026020016040519081016040528093929190818152602001838380828437600081840152601f19601f820116905080830192505050505050506105ad565b9050600073ffffffffffffffffffffffffffffffffffffffff168173ffffffffffffffffffffffffffffffffffffffff16036102d9576040517f08c379a00000000000000000000000000000000000000000000000000000000081526004016102d0906111e5565b60405180910390fd5b8460000160208101906102ec919061109f565b73ffffffffffffffffffffffffffffffffffffffff168173ffffffffffffffffffffffffffffffffffffffff1614610359576040517f08c379a000000000000000000000000000000000000000000000000000000000815260040161035090611251565b60405180910390fd5b60016002600084815260200190815260200160002060006101000a81548160ff021916908315150217905550846040016020810190610398919061109f565b73ffffffffffffffffffffffffffffffffffffffff166323b872dd8660000160208101906103c6919061109f565b8760200160208101906103d9919061109f565b88606001356040518463ffffffff1660e01b81526004016103fc93929190611271565b6020604051808303816000875af115801561041b573d6000803e3d6000fd5b505050506040513d601f19601f8201168201806040525081019061043f91906112d4565b50846020016020810190610453919061109f565b73ffffffffffffffffffffffffffffffffffffffff1685600001602081019061047c919061109f565b73ffffffffffffffffffffffffffffffffffffffff16837fdb5abc8c05e0ef7282f1552636d4db6a771d32609359c1fdb37819432dd80bf78860400160208101906104c7919061109f565b89606001356040516104da929190611301565b60405180910390a45050505050565b6000606080600080600060606104fd6105d9565b610505610614565b46306000801b600067ffffffffffffffff8111156105265761052561132a565b5b6040519080825280602002602001820160405280156105545781602001602082028036833780820191505090505b507f0f00000000000000000000000000000000000000000000000000000000000000959493929190965096509650965096509650965090919293949596565b60006105a66105a061064f565b83610706565b9050919050565b6000806000806105bd8686610747565b9250925092506105cd82826107a3565b82935050505092915050565b606061060f60007f000000000000000000000000000000000000000000000000000000000000000061090790919063ffffffff16565b905090565b606061064a60017f000000000000000000000000000000000000000000000000000000000000000061090790919063ffffffff16565b905090565b60007f000000000000000000000000000000000000000000000000000000000000000073ffffffffffffffffffffffffffffffffffffffff163073ffffffffffffffffffffffffffffffffffffffff161480156106cb57507f000000000000000000000000000000000000000000000000000000000000000046145b156106f8577f00000000000000000000000000000000000000000000000000000000000000009050610703565b6107006109b7565b90505b90565b60006040517f190100000000000000000000000000000000000000000000000000000000000081528360028201528260228201526042812091505092915050565b6000806000604184510361078c5760008060006020870151925060408701519150606087015160001a905061077e88828585610a4d565b95509550955050505061079c565b60006002855160001b9250925092505b9250925092565b600060038111156107b7576107b6611359565b5b8260038111156107ca576107c9611359565b5b031561090357600160038111156107e4576107e3611359565b5b8260038111156107f7576107f6611359565b5b0361082e576040517ff645eedf00000000000000000000000000000000000000000000000000000000815260040160405180910390fd5b6002600381111561084257610841611359565b5b82600381111561085557610854611359565b5b0361089a578060001c6040517ffce698f70000000000000000000000000000000000000000000000000000000081526004016108919190611388565b60405180910390fd5b6003808111156108ad576108ac611359565b5b8260038111156108c0576108bf611359565b5b0361090257806040517fd78bce0c0000000000000000000000000000000000000000000000000000000081526004016108f991906113a3565b60405180910390fd5b5b5050565b606060ff60001b83146109245761091d83610b41565b90506109b1565b818054610930906113ed565b80601f016020809104026020016040519081016040528092919081815260200182805461095c906113ed565b80156109a95780601f1061097e576101008083540402835291602001916109a9565b820191906000526020600020905b81548152906001019060200180831161098c57829003601f168201915b505050505090505b92915050565b60007f8b73c3c69bb8fe3d512ecc4cf759cc79239f7b179b0ffacaa9a75d522b39400f7f00000000000000000000000000000000000000000000000000000000000000007f00000000000000000000000000000000000000000000000000000000000000004630604051602001610a3295949392919061141e565b60405160208183030381529060405280519060200120905090565b60008060007f7fffffffffffffffffffffffffffffff5d576e7357a4501ddfe92f46681b20a08460001c1115610a8d576000600385925092509250610b37565b600060018888888860405160008152602001604052604051610ab2949392919061148d565b6020604051602081039080840390855afa158015610ad4573d6000803e3d6000fd5b505050602060405103519050600073ffffffffffffffffffffffffffffffffffffffff168173ffffffffffffffffffffffffffffffffffffffff1603610b2857600060016000801b93509350935050610b37565b8060008060001b935093509350505b9450945094915050565b60606000610b4e83610bb5565b90506000602067ffffffffffffffff811115610b6d57610b6c61132a565b5b6040519080825280601f01601f191660200182016040528015610b9f5781602001600182028036833780820191505090505b5090508181528360208201528092505050919050565b60008060ff8360001c169050601f811115610bfc576040517fb3512b0c00000000000000000000000000000000000000000000000000000000815260040160405180910390fd5b80915050919050565b600080fd5b600080fd5b6000819050919050565b610c2281610c0f565b8114610c2d57600080fd5b50565b600081359050610c3f81610c19565b92915050565b600060208284031215610c5b57610c5a610c05565b5b6000610c6984828501610c30565b91505092915050565b60008115159050919050565b610c8781610c72565b82525050565b6000602082019050610ca26000830184610c7e565b92915050565b600080fd5b600060a08284031215610cc357610cc2610ca8565b5b81905092915050565b600080fd5b600080fd5b600080fd5b60008083601f840112610cf157610cf0610ccc565b5b8235905067ffffffffffffffff811115610d0e57610d0d610cd1565b5b602083019150836001820283011115610d2a57610d29610cd6565b5b9250929050565b600080600060c08486031215610d4a57610d49610c05565b5b6000610d5886828701610cad565b93505060a084013567ffffffffffffffff811115610d7957610d78610c0a565b5b610d8586828701610cdb565b92509250509250925092565b60007fff0000000000000000000000000000000000000000000000000000000000000082169050919050565b610dc681610d91565b82525050565b600081519050919050565b600082825260208201905092915050565b60005b83811015610e06578082015181840152602081019050610deb565b60008484015250505050565b6000601f19601f8301169050919050565b6000610e2e82610dcc565b610e388185610dd7565b9350610e48818560208601610de8565b610e5181610e12565b840191505092915050565b6000819050919050565b610e6f81610e5c565b82525050565b600073ffffffffffffffffffffffffffffffffffffffff82169050919050565b6000610ea082610e75565b9050919050565b610eb081610e95565b82525050565b610ebf81610c0f565b82525050565b600081519050919050565b600082825260208201905092915050565b6000819050602082019050919050565b610efa81610e5c565b82525050565b6000610f0c8383610ef1565b60208301905092915050565b6000602082019050919050565b6000610f3082610ec5565b610f3a8185610ed0565b9350610f4583610ee1565b8060005b83811015610f76578151610f5d8882610f00565b9750610f6883610f18565b925050600181019050610f49565b5085935050505092915050565b600060e082019050610f98600083018a610dbd565b8181036020830152610faa8189610e23565b90508181036040830152610fbe8188610e23565b9050610fcd6060830187610e66565b610fda6080830186610ea7565b610fe760a0830185610eb6565b81810360c0830152610ff98184610f25565b905098975050505050505050565b7f537761702074696d656c6f636b20657870697265640000000000000000000000600082015250565b600061103d601583610dd7565b915061104882611007565b602082019050919050565b6000602082019050818103600083015261106c81611030565b9050919050565b61107c81610e95565b811461108757600080fd5b50565b60008135905061109981611073565b92915050565b6000602082840312156110b5576110b4610c05565b5b60006110c38482850161108a565b91505092915050565b600060c0820190506110e16000830189610eb6565b6110ee6020830188610ea7565b6110fb6040830187610ea7565b6111086060830186610ea7565b6111156080830185610e66565b61112260a0830184610e66565b979650505050505050565b7f5377617020616c72656164792065786563757465640000000000000000000000600082015250565b6000611163601583610dd7565b915061116e8261112d565b602082019050919050565b6000602082019050818103600083015261119281611156565b9050919050565b7f496e76616c6964207369676e6174757265000000000000000000000000000000600082015250565b60006111cf601183610dd7565b91506111da82611199565b602082019050919050565b600060208201905081810360008301526111fe816111c2565b9050919050565b7f5369676e6572206973206e6f742074686520696e69746961746f720000000000600082015250565b600061123b601b83610dd7565b915061124682611205565b602082019050919050565b6000602082019050818103600083015261126a8161122e565b9050919050565b60006060820190506112866000830186610ea7565b6112936020830185610ea7565b6112a06040830184610e66565b949350505050565b6112b181610c72565b81146112bc57600080fd5b50565b6000815190506112ce816112a8565b92915050565b6000602082840312156112ea576112e9610c05565b5b60006112f8848285016112bf565b91505092915050565b60006040820190506113166000830185610ea7565b6113236020830184610e66565b9392505050565b7f4e487b7100000000000000000000000000000000000000000000000000000000600052604160045260246000fd5b7f4e487b7100000000000000000000000000000000000000000000000000000000600052602160045260246000fd5b600060208201905061139d6000830184610e66565b92915050565b60006020820190506113b86000830184610eb6565b92915050565b7f4e487b7100000000000000000000000000000000000000000000000000000000600052602260045260246000fd5b6000600282049050600182168061140557607f821691505b602082108103611418576114176113be565b5b50919050565b600060a0820190506114336000830188610eb6565b6114406020830187610eb6565b61144d6040830186610eb6565b61145a6060830185610e66565b6114676080830184610ea7565b9695505050505050565b600060ff82169050919050565b61148781611471565b82525050565b60006080820190506114a26000830187610eb6565b6114af602083018661147e565b6114bc6040830185610eb6565b6114c96060830184610eb6565b9594505050505056fea26469706673582212202dcb912ee85d06f9785d107dc78051dc4c6912adf970bd9a1ef614f4048eac4464736f6c63430008180033",
  "linkReferences": {},
  "deployedLinkReferences": {}
}