{
  "_format": "hh-sol-artifact-1",
  "contractName": "Escrow",
  "sourceName": "Contracts/Escrow.sol",
  "abi": [
    {
      "anonymous": false,
      "inputs": [
        {
          "indexed": true,
          "internalType": "bytes32",
          "name": "swapId",
          "type": "bytes32"
        },
        {
          "indexed": false,
          "internalType": "bytes32",
          "name": "secret",
          "type": "bytes32"
        }
      ],
      "name": "SwapClaimed",
      "type": "event"
    },
    {
      "anonymous": false,
      "inputs": [
        {
          "indexed": true,
          "internalType": "bytes32",
          "name": "swapId",
          "type": "bytes32"
        },
        {
          "indexed": false,
          "internalType": "bytes32",
          "name": "hashedSecret",
          "type": "bytes32"
        }
      ],
      "name": "SwapInitiated",
      "type": "event"
    },
    {
      "anonymous": false,
      "inputs": [
        {
          "indexed": true,
          "internalType": "bytes32",
          "name": "swapId",
          "type": "bytes32"
        }
      ],
      "name": "SwapRefunded",
      "type": "event"
    },
    {
      "inputs": [
        {
          "internalType": "bytes32",
          "name": "swapId",
          "type": "bytes32"
        },
        {
          "internalType": "bytes32",
          "name": "secret",
          "type": "bytes32"
        }
      ],
      "name": "claim",
      "outputs": [],
      "stateMutability": "nonpayable",
      "type": "function"
    },
    {
      "inputs": [
        {
          "internalType": "bytes32",
          "name": "swapId",
          "type": "bytes32"
        },
        {
          "internalType": "address payable",
          "name": "recipient",
          "type": "address"
        },
        {
          "internalType": "address",
          "name": "token",
          "type": "address"
        },
        {
          "internalType": "uint256",
          "name": "amount",
          "type": "uint256"
        },
        {
          "internalType": "bytes32",
          "name": "hashedSecret",
          "type": "bytes32"
        },
        {
          "internalType": "uint256",
          "name": "timelock",
          "type": "uint256"
        }
      ],
      "name": "initiate",
      "outputs": [],
      "stateMutability": "nonpayable",
      "type": "function"
    },
    {
      "inputs": [
        {
          "internalType": "bytes32",
          "name": "swapId",
          "type": "bytes32"
        }
      ],
      "name": "refund",
      "outputs": [],
      "stateMutability": "nonpayable",
      "type": "function"
    },
    {
      "inputs": [
        {
          "internalType": "bytes32",
          "name": "",
          "type": "bytes32"
        }
      ],
      "name": "swaps",
      "outputs": [
        {
          "internalType": "address payable",
          "name": "initiator",
          "type": "address"
        },
        {
          "internalType": "address payable",
          "name": "recipient",
          "type": "address"
        },
        {
          "internalType": "address",
          "name": "token",
          "type": "address"
        },
        {
          "internalType": "uint256",
          "name": "amount",
          "type": "uint256"
        },
        {
          "internalType": "bytes32",
          "name": "hashedSecret",
          "type": "bytes32"
        },
        {
          "internalType": "uint256",
          "name": "timelock",
          "type": "uint256"
        },
        {
          "internalType": "bool",
          "name": "claimed",
          "type": "bool"
        },
        {
          "internalType": "bool",
          "name": "refunded",
          "type": "bool"
        }
      ],
      "stateMutability": "view",
      "type": "function"
    }
  ],
  "bytecode": "0x608060405234801561001057600080fd5b5061155d806100206000396000f3fe608060405234801561001057600080fd5b506004361061004c5760003560e01c8063395de232146100515780637249fbb61461006d57806384cc9dfb14610089578063eb84e7f2146100a5575b600080fd5b61006b60048036038101906100669190610cf1565b6100dc565b005b61008760048036038101906100829190610d7e565b610442565b005b6100a3600480360381019061009e9190610dab565b610781565b005b6100bf60048036038101906100ba9190610d7e565b610b22565b6040516100d3989796959493929190610e42565b60405180910390f35b600073ffffffffffffffffffffffffffffffffffffffff1660008088815260200190815260200160002060000160009054906101000a900473ffffffffffffffffffffffffffffffffffffffff1673ffffffffffffffffffffffffffffffffffffffff1614610180576040517f08c379a000000000000000000000000000000000000000000000000000000000815260040161017790610f1d565b60405180910390fd5b4281116101c2576040517f08c379a00000000000000000000000000000000000000000000000000000000081526004016101b990610f89565b60405180910390fd5b6040518061010001604052803373ffffffffffffffffffffffffffffffffffffffff1681526020018673ffffffffffffffffffffffffffffffffffffffff1681526020018573ffffffffffffffffffffffffffffffffffffffff1681526020018481526020018381526020018281526020016000151581526020016000151581525060008088815260200190815260200160002060008201518160000160006101000a81548173ffffffffffffffffffffffffffffffffffffffff021916908373ffffffffffffffffffffffffffffffffffffffff16021790555060208201518160010160006101000a81548173ffffffffffffffffffffffffffffffffffffffff021916908373ffffffffffffffffffffffffffffffffffffffff16021790555060408201518160020160006101000a81548173ffffffffffffffffffffffffffffffffffffffff021916908373ffffffffffffffffffffffffffffffffffffffff160217905550606082015181600301556080820151816004015560a0820151816005015560c08201518160060160006101000a81548160ff02191690831515021790555060e08201518160060160016101000a81548160ff0219169083151502179055509050508373ffffffffffffffffffffffffffffffffffffffff166323b872dd3330866040518463ffffffff1660e01b81526004016103c993929190610fa9565b6020604051808303816000875af11580156103e8573d6000803e3d6000fd5b505050506040513d601f19601f8201168201806040525081019061040c919061100c565b50857f28de0787eff2bc1d5ce5d147c91fc03d5cb01652fb74cd093606e833484be9d060405160405180910390a2505050505050565b60008060008381526020019081526020016000209050600073ffffffffffffffffffffffffffffffffffffffff168160000160009054906101000a900473ffffffffffffffffffffffffffffffffffffffff1673ffffffffffffffffffffffffffffffffffffffff16036104eb576040517f08c379a00000000000000000000000000000000000000000000000000000000081526004016104e290611085565b60405180910390fd5b8060060160009054906101000a900460ff161561053d576040517f08c379a0000000000000000000000000000000000000000000000000000000008152600401610534906110f1565b60405180910390fd5b8060060160019054906101000a900460ff161561058f576040517f08c379a00000000000000000000000000000000000000000000000000000000081526004016105869061115d565b60405180910390fd5b80600501544210156105d6576040517f08c379a00000000000000000000000000000000000000000000000000000000081526004016105cd906111c9565b60405180910390fd5b3373ffffffffffffffffffffffffffffffffffffffff168160000160009054906101000a900473ffffffffffffffffffffffffffffffffffffffff1673ffffffffffffffffffffffffffffffffffffffff1614610668576040517f08c379a000000000000000000000000000000000000000000000000000000000815260040161065f90611235565b60405180910390fd5b60018160060160016101000a81548160ff0219169083151502179055508060020160009054906101000a900473ffffffffffffffffffffffffffffffffffffffff1673ffffffffffffffffffffffffffffffffffffffff1663a9059cbb8260000160009054906101000a900473ffffffffffffffffffffffffffffffffffffffff1683600301546040518363ffffffff1660e01b815260040161070c9291906112b4565b6020604051808303816000875af115801561072b573d6000803e3d6000fd5b505050506040513d601f19601f8201168201806040525081019061074f919061100c565b50817fc506b8643b74e7a2fbb400c79e929dd5dfffb301fb07afb3b0e8e7c47925cf5a60405160405180910390a25050565b60008060008481526020019081526020016000209050600073ffffffffffffffffffffffffffffffffffffffff168160000160009054906101000a900473ffffffffffffffffffffffffffffffffffffffff1673ffffffffffffffffffffffffffffffffffffffff160361082a576040517f08c379a000000000000000000000000000000000000000000000000000000000815260040161082190611085565b60405180910390fd5b8060060160009054906101000a900460ff161561087c576040517f08c379a0000000000000000000000000000000000000000000000000000000008152600401610873906110f1565b60405180910390fd5b3373ffffffffffffffffffffffffffffffffffffffff168160010160009054906101000a900473ffffffffffffffffffffffffffffffffffffffff1673ffffffffffffffffffffffffffffffffffffffff161461090e576040517f08c379a000000000000000000000000000000000000000000000000000000000815260040161090590611329565b60405180910390fd5b600282604051602001610921919061136a565b60405160208183030381529060405260405161093d91906113f6565b602060405180830381855afa15801561095a573d6000803e3d6000fd5b5050506040513d601f19601f8201168201806040525081019061097d9190611422565b8160040154146109c2576040517f08c379a00000000000000000000000000000000000000000000000000000000081526004016109b99061149b565b60405180910390fd5b80600501544210610a08576040517f08c379a00000000000000000000000000000000000000000000000000000000081526004016109ff90611507565b60405180910390fd5b60018160060160006101000a81548160ff0219169083151502179055508060020160009054906101000a900473ffffffffffffffffffffffffffffffffffffffff1673ffffffffffffffffffffffffffffffffffffffff1663a9059cbb8260010160009054906101000a900473ffffffffffffffffffffffffffffffffffffffff1683600301546040518363ffffffff1660e01b8152600401610aac9291906112b4565b6020604051808303816000875af1158015610acb573d6000803e3d6000fd5b505050506040513d601f19601f82011682018060405250810190610aef919061100c565b50827fec3ecfa3b843753557aee45b07de8193a1a8f21aa826f5e8bb56fe1f9f5bab1d60405160405180910390a2505050565b60006020528060005260406000206000915090508060000160009054906101000a900473ffffffffffffffffffffffffffffffffffffffff16908060010160009054906101000a900473ffffffffffffffffffffffffffffffffffffffff16908060020160009054906101000a900473ffffffffffffffffffffffffffffffffffffffff16908060030154908060040154908060050154908060060160009054906101000a900460ff16908060060160019054906101000a900460ff16905088565b600080fd5b6000819050919050565b610bfc81610be9565b8114610c0757600080fd5b50565b600081359050610c1981610bf3565b92915050565b600073ffffffffffffffffffffffffffffffffffffffff82169050919050565b6000610c4a82610c1f565b9050919050565b610c5a81610c3f565b8114610c6557600080fd5b50565b600081359050610c7781610c51565b92915050565b6000610c8882610c1f565b9050919050565b610c9881610c7d565b8114610ca357600080fd5b50565b600081359050610cb581610c8f565b92915050565b6000819050919050565b610cce81610cbb565b8114610cd957600080fd5b50565b600081359050610ceb81610cc5565b92915050565b60008060008060008060c08789031215610d0e57610d0d610be4565b5b6000610d1c89828a01610c0a565b9650506020610d2d89828a01610c68565b9550506040610d3e89828a01610ca6565b9450506060610d4f89828a01610cdc565b9350506080610d6089828a01610c0a565b92505060a0610d7189828a01610cdc565b9150509295509295509295565b600060208284031215610d9457610d93610be4565b5b6000610da284828501610c0a565b91505092915050565b60008060408385031215610dc257610dc1610be4565b5b6000610dd085828601610c0a565b9250506020610de185828601610c0a565b9150509250929050565b610df481610c3f565b82525050565b610e0381610c7d565b82525050565b610e1281610cbb565b82525050565b610e2181610be9565b82525050565b60008115159050919050565b610e3c81610e27565b82525050565b600061010082019050610e58600083018b610deb565b610e65602083018a610deb565b610e726040830189610dfa565b610e7f6060830188610e09565b610e8c6080830187610e18565b610e9960a0830186610e09565b610ea660c0830185610e33565b610eb360e0830184610e33565b9998505050505050505050565b600082825260208201905092915050565b7f5377617020616c726561647920696e6974696174656400000000000000000000600082015250565b6000610f07601683610ec0565b9150610f1282610ed1565b602082019050919050565b60006020820190508181036000830152610f3681610efa565b9050919050565b7f54696d656c6f636b206d75737420626520696e20746865206675747572650000600082015250565b6000610f73601e83610ec0565b9150610f7e82610f3d565b602082019050919050565b60006020820190508181036000830152610fa281610f66565b9050919050565b6000606082019050610fbe6000830186610dfa565b610fcb6020830185610dfa565b610fd86040830184610e09565b949350505050565b610fe981610e27565b8114610ff457600080fd5b50565b60008151905061100681610fe0565b92915050565b60006020828403121561102257611021610be4565b5b600061103084828501610ff7565b91505092915050565b7f5377617020646f6573206e6f7420657869737400000000000000000000000000600082015250565b600061106f601383610ec0565b915061107a82611039565b602082019050919050565b6000602082019050818103600083015261109e81611062565b9050919050565b7f5377617020616c726561647920636c61696d6564000000000000000000000000600082015250565b60006110db601483610ec0565b91506110e6826110a5565b602082019050919050565b6000602082019050818103600083015261110a816110ce565b9050919050565b7f5377617020616c726561647920726566756e6465640000000000000000000000600082015250565b6000611147601583610ec0565b915061115282611111565b602082019050919050565b600060208201905081810360008301526111768161113a565b9050919050565b7f54696d656c6f636b206e6f742065787069726564207965740000000000000000600082015250565b60006111b3601883610ec0565b91506111be8261117d565b602082019050919050565b600060208201905081810360008301526111e2816111a6565b9050919050565b7f4f6e6c7920696e69746961746f722063616e20726566756e6400000000000000600082015250565b600061121f601983610ec0565b915061122a826111e9565b602082019050919050565b6000602082019050818103600083015261124e81611212565b9050919050565b6000819050919050565b600061127a61127561127084610c1f565b611255565b610c1f565b9050919050565b600061128c8261125f565b9050919050565b600061129e82611281565b9050919050565b6112ae81611293565b82525050565b60006040820190506112c960008301856112a5565b6112d66020830184610e09565b9392505050565b7f4f6e6c7920726563697069656e742063616e20636c61696d0000000000000000600082015250565b6000611313601883610ec0565b915061131e826112dd565b602082019050919050565b6000602082019050818103600083015261134281611306565b9050919050565b6000819050919050565b61136461135f82610be9565b611349565b82525050565b60006113768284611353565b60208201915081905092915050565b600081519050919050565b600081905092915050565b60005b838110156113b957808201518184015260208101905061139e565b60008484015250505050565b60006113d082611385565b6113da8185611390565b93506113ea81856020860161139b565b80840191505092915050565b600061140282846113c5565b915081905092915050565b60008151905061141c81610bf3565b92915050565b60006020828403121561143857611437610be4565b5b60006114468482850161140d565b91505092915050565b7f496e76616c696420736563726574000000000000000000000000000000000000600082015250565b6000611485600e83610ec0565b91506114908261144f565b602082019050919050565b600060208201905081810360008301526114b481611478565b9050919050565b7f54696d656c6f636b206578706972656400000000000000000000000000000000600082015250565b60006114f1601083610ec0565b91506114fc826114bb565b602082019050919050565b60006020820190508181036000830152611520816114e4565b905091905056fea264697066735822122017515758961977be6276021f3556f3ce1bea509acafd810183eb6b4373b3319264736f6c63430008180033",
  "linkReferences": {},
  "deployedLinkReferences": {}
}