{
  "_format": "hh-sol-artifact-1",
  "contractName": "SwapAuction",
  "sourceName": "Contracts/SwapAuction.sol",
  "abi": [
    {
      "anonymous": false,
      "inputs": [
        {
          "indexed": false,
          "internalType": "uint256",
          "name": "auctionId",
          "type": "uint256"
        },
        {
          "indexed": true,
          "internalType": "address",
          "name": "maker",
          "type": "address"
        },
        {
          "indexed": true,
          "internalType": "address",
          "name": "tokenA",
          "type": "address"
        },
        {
          "indexed": false,
          "internalType": "uint256",
          "name": "amountA",
          "type": "uint256"
        },
        {
          "indexed": true,
          "internalType": "address",
          "name": "tokenB",
          "type": "address"
        },
        {
          "indexed": false,
          "internalType": "uint256",
          "name": "minAmountB",
          "type": "uint256"
        },
        {
          "indexed": false,
          "internalType": "uint256",
          "name": "endTime",
          "type": "uint256"
        }
      ],
      "name": "AuctionCreated",
      "type": "event"
    },
    {
      "anonymous": false,
      "inputs": [
        {
          "indexed": false,
          "internalType": "uint256",
          "name": "auctionId",
          "type": "uint256"
        },
        {
          "indexed": true,
          "internalType": "address",
          "name": "maker",
          "type": "address"
        },
        {
          "indexed": true,
          "internalType": "address",
          "name": "taker",
          "type": "address"
        },
        {
          "indexed": false,
          "internalType": "address",
          "name": "tokenA",
          "type": "address"
        },
        {
          "indexed": false,
          "internalType": "uint256",
          "name": "amountA",
          "type": "uint256"
        },
        {
          "indexed": false,
          "internalType": "address",
          "name": "tokenB",
          "type": "address"
        },
        {
          "indexed": false,
          "internalType": "uint256",
          "name": "amountB",
          "type": "uint256"
        }
      ],
      "name": "AuctionEnded",
      "type": "event"
    },
    {
      "anonymous": false,
      "inputs": [
        {
          "indexed": false,
          "internalType": "uint256",
          "name": "auctionId",
          "type": "uint256"
        },
        {
          "indexed": true,
          "internalType": "address",
          "name": "bidder",
          "type": "address"
        },
        {
          "indexed": false,
          "internalType": "uint256",
          "name": "amount",
          "type": "uint256"
        }
      ],
      "name": "BidPlaced",
      "type": "event"
    },
    {
      "inputs": [],
      "name": "auctionCounter",
      "outputs": [
        {
          "internalType": "uint256",
          "name": "",
          "type": "uint256"
        }
      ],
      "stateMutability": "view",
      "type": "function"
    },
    {
      "inputs": [
        {
          "internalType": "uint256",
          "name": "",
          "type": "uint256"
        }
      ],
      "name": "auctions",
      "outputs": [
        {
          "internalType": "address",
          "name": "maker",
          "type": "address"
        },
        {
          "internalType": "address",
          "name": "tokenA",
          "type": "address"
        },
        {
          "internalType": "uint256",
          "name": "amountA",
          "type": "uint256"
        },
        {
          "internalType": "address",
          "name": "tokenB",
          "type": "address"
        },
        {
          "internalType": "uint256",
          "name": "minAmountB",
          "type": "uint256"
        },
        {
          "internalType": "uint256",
          "name": "endTime",
          "type": "uint256"
        },
        {
          "internalType": "address",
          "name": "highestBidder",
          "type": "address"
        },
        {
          "internalType": "uint256",
          "name": "highestBid",
          "type": "uint256"
        },
        {
          "internalType": "bool",
          "name": "ended",
          "type": "bool"
        }
      ],
      "stateMutability": "view",
      "type": "function"
    },
    {
      "inputs": [
        {
          "internalType": "uint256",
          "name": "_auctionId",
          "type": "uint256"
        },
        {
          "internalType": "uint256",
          "name": "_amountB",
          "type": "uint256"
        }
      ],
      "name": "bid",
      "outputs": [],
      "stateMutability": "nonpayable",
      "type": "function"
    },
    {
      "inputs": [
        {
          "internalType": "address",
          "name": "_tokenA",
          "type": "address"
        },
        {
          "internalType": "uint256",
          "name": "_amountA",
          "type": "uint256"
        },
        {
          "internalType": "address",
          "name": "_tokenB",
          "type": "address"
        },
        {
          "internalType": "uint256",
          "name": "_minAmountB",
          "type": "uint256"
        },
        {
          "internalType": "uint256",
          "name": "_duration",
          "type": "uint256"
        }
      ],
      "name": "createAuction",
      "outputs": [],
      "stateMutability": "nonpayable",
      "type": "function"
    },
    {
      "inputs": [
        {
          "internalType": "uint256",
          "name": "_auctionId",
          "type": "uint256"
        }
      ],
      "name": "endAuction",
      "outputs": [],
      "stateMutability": "nonpayable",
      "type": "function"
    }
  ],
  "bytecode": "0x608060405234801561001057600080fd5b50611081806100206000396000f3fe608060405234801561001057600080fd5b50600436106100575760003560e01c8063571a26a01461005c578063598647f814610094578063a7e76644146100b0578063b9a2de3a146100ce578063f2df5047146100ea575b600080fd5b61007660048036038101906100719190610967565b610106565b60405161008b999897969594939291906109ff565b60405180910390f35b6100ae60048036038101906100a99190610a8c565b6101e1565b005b6100b8610380565b6040516100c59190610acc565b60405180910390f35b6100e860048036038101906100e39190610967565b610386565b005b61010460048036038101906100ff9190610b13565b6105c9565b005b60016020528060005260406000206000915090508060000160009054906101000a900473ffffffffffffffffffffffffffffffffffffffff16908060010160009054906101000a900473ffffffffffffffffffffffffffffffffffffffff16908060020154908060030160009054906101000a900473ffffffffffffffffffffffffffffffffffffffff16908060040154908060050154908060060160009054906101000a900473ffffffffffffffffffffffffffffffffffffffff16908060070154908060080160009054906101000a900460ff16905089565b816001600082815260200190815260200160002060050154421061023a576040517f08c379a000000000000000000000000000000000000000000000000000000000815260040161023190610beb565b60405180910390fd5b600060016000858152602001908152602001600020905080600701548311610297576040517f08c379a000000000000000000000000000000000000000000000000000000000815260040161028e90610c7d565b60405180910390fd5b80600401548310156102de576040517f08c379a00000000000000000000000000000000000000000000000000000000081526004016102d590610d0f565b60405180910390fd5b338160060160006101000a81548173ffffffffffffffffffffffffffffffffffffffff021916908373ffffffffffffffffffffffffffffffffffffffff1602179055508281600701819055503373ffffffffffffffffffffffffffffffffffffffff167f0e54eff26401bf69b81b26f60bd85ef47f5d85275c1d268d84f68d6897431c478585604051610372929190610d2f565b60405180910390a250505050565b60005481565b8060016000828152602001908152602001600020600501544210156103e0576040517f08c379a00000000000000000000000000000000000000000000000000000000081526004016103d790610da4565b60405180910390fd5b60006001600084815260200190815260200160002090508060080160009054906101000a900460ff1615610449576040517f08c379a000000000000000000000000000000000000000000000000000000000815260040161044090610e10565b60405180910390fd5b60018160080160006101000a81548160ff021916908315150217905550600073ffffffffffffffffffffffffffffffffffffffff168160060160009054906101000a900473ffffffffffffffffffffffffffffffffffffffff1673ffffffffffffffffffffffffffffffffffffffff16146105c4578060060160009054906101000a900473ffffffffffffffffffffffffffffffffffffffff1673ffffffffffffffffffffffffffffffffffffffff168160000160009054906101000a900473ffffffffffffffffffffffffffffffffffffffff1673ffffffffffffffffffffffffffffffffffffffff167ff01ed821b9a8c314c714bd7e844f2a156304c0e2e912a282b9722e918c3903e8858460010160009054906101000a900473ffffffffffffffffffffffffffffffffffffffff1685600201548660030160009054906101000a900473ffffffffffffffffffffffffffffffffffffffff1687600701546040516105bb959493929190610e30565b60405180910390a35b505050565b6000841161060c576040517f08c379a000000000000000000000000000000000000000000000000000000000815260040161060390610ecf565b60405180910390fd5b6000811161064f576040517f08c379a000000000000000000000000000000000000000000000000000000000815260040161064690610f3b565b60405180910390fd5b60008081548092919061066190610f8a565b91905055506040518061012001604052803373ffffffffffffffffffffffffffffffffffffffff1681526020018673ffffffffffffffffffffffffffffffffffffffff1681526020018581526020018473ffffffffffffffffffffffffffffffffffffffff16815260200183815260200182426106de9190610fd2565b8152602001600073ffffffffffffffffffffffffffffffffffffffff1681526020016000815260200160001515815250600160008054815260200190815260200160002060008201518160000160006101000a81548173ffffffffffffffffffffffffffffffffffffffff021916908373ffffffffffffffffffffffffffffffffffffffff16021790555060208201518160010160006101000a81548173ffffffffffffffffffffffffffffffffffffffff021916908373ffffffffffffffffffffffffffffffffffffffff1602179055506040820151816002015560608201518160030160006101000a81548173ffffffffffffffffffffffffffffffffffffffff021916908373ffffffffffffffffffffffffffffffffffffffff1602179055506080820151816004015560a0820151816005015560c08201518160060160006101000a81548173ffffffffffffffffffffffffffffffffffffffff021916908373ffffffffffffffffffffffffffffffffffffffff16021790555060e082015181600701556101008201518160080160006101000a81548160ff0219169083151502179055509050508273ffffffffffffffffffffffffffffffffffffffff168573ffffffffffffffffffffffffffffffffffffffff163373ffffffffffffffffffffffffffffffffffffffff167ffaa51e30d872c8e8d8e48926b1ce8b95058c557466dff7b3a7764c359877c7fb600054888760016000805481526020019081526020016000206005015460405161091d9493929190611006565b60405180910390a45050505050565b600080fd5b6000819050919050565b61094481610931565b811461094f57600080fd5b50565b6000813590506109618161093b565b92915050565b60006020828403121561097d5761097c61092c565b5b600061098b84828501610952565b91505092915050565b600073ffffffffffffffffffffffffffffffffffffffff82169050919050565b60006109bf82610994565b9050919050565b6109cf816109b4565b82525050565b6109de81610931565b82525050565b60008115159050919050565b6109f9816109e4565b82525050565b600061012082019050610a15600083018c6109c6565b610a22602083018b6109c6565b610a2f604083018a6109d5565b610a3c60608301896109c6565b610a4960808301886109d5565b610a5660a08301876109d5565b610a6360c08301866109c6565b610a7060e08301856109d5565b610a7e6101008301846109f0565b9a9950505050505050505050565b60008060408385031215610aa357610aa261092c565b5b6000610ab185828601610952565b9250506020610ac285828601610952565b9150509250929050565b6000602082019050610ae160008301846109d5565b92915050565b610af0816109b4565b8114610afb57600080fd5b50565b600081359050610b0d81610ae7565b92915050565b600080600080600060a08688031215610b2f57610b2e61092c565b5b6000610b3d88828901610afe565b9550506020610b4e88828901610952565b9450506040610b5f88828901610afe565b9350506060610b7088828901610952565b9250506080610b8188828901610952565b9150509295509295909350565b600082825260208201905092915050565b7f41756374696f6e2068617320616c726561647920656e64656400000000000000600082015250565b6000610bd5601983610b8e565b9150610be082610b9f565b602082019050919050565b60006020820190508181036000830152610c0481610bc8565b9050919050565b7f426964206d75737420626520686967686572207468616e2063757272656e742060008201527f6869676865737420626964000000000000000000000000000000000000000000602082015250565b6000610c67602b83610b8e565b9150610c7282610c0b565b604082019050919050565b60006020820190508181036000830152610c9681610c5a565b9050919050565b7f426964206d757374206265206174206c6561737420746865206d696e696d756d60008201527f2061636365707461626c6520616d6f756e740000000000000000000000000000602082015250565b6000610cf9603283610b8e565b9150610d0482610c9d565b604082019050919050565b60006020820190508181036000830152610d2881610cec565b9050919050565b6000604082019050610d4460008301856109d5565b610d5160208301846109d5565b9392505050565b7f41756374696f6e20686173206e6f7420656e6465642079657400000000000000600082015250565b6000610d8e601983610b8e565b9150610d9982610d58565b602082019050919050565b60006020820190508181036000830152610dbd81610d81565b9050919050565b7f41756374696f6e2068617320616c7265616479206265656e20656e6465640000600082015250565b6000610dfa601e83610b8e565b9150610e0582610dc4565b602082019050919050565b60006020820190508181036000830152610e2981610ded565b9050919050565b600060a082019050610e4560008301886109d5565b610e5260208301876109c6565b610e5f60408301866109d5565b610e6c60608301856109c6565b610e7960808301846109d5565b9695505050505050565b7f416d6f756e742041206d7573742062652067726561746572207468616e203000600082015250565b6000610eb9601f83610b8e565b9150610ec482610e83565b602082019050919050565b60006020820190508181036000830152610ee881610eac565b9050919050565b7f4475726174696f6e206d7573742062652067726561746572207468616e203000600082015250565b6000610f25601f83610b8e565b9150610f3082610eef565b602082019050919050565b60006020820190508181036000830152610f5481610f18565b9050919050565b7f4e487b7100000000000000000000000000000000000000000000000000000000600052601160045260246000fd5b6000610f9582610931565b91507fffffffffffffffffffffffffffffffffffffffffffffffffffffffffffffffff8203610fc757610fc6610f5b565b5b600182019050919050565b6000610fdd82610931565b9150610fe883610931565b925082820190508082111561100057610fff610f5b565b5b92915050565b600060808201905061101b60008301876109d5565b61102860208301866109d5565b61103560408301856109d5565b61104260608301846109d5565b9594505050505056fea2646970667358221220451ff413f187448915eecb5d8cfb34377045eca650703a23f0c74183c1543f1c64736f6c63430008180033",
  "linkReferences": {},
  "deployedLinkReferences": {}
}